{
  "contractName": "Car",
  "abi": [
    {
      "inputs": [
        {
          "name": "s",
          "type": "address"
        },
        {
          "name": "f",
          "type": "address"
        },
        {
          "name": "i",
          "type": "address"
        }
      ],
      "payable": false,
      "stateMutability": "nonpayable",
      "type": "constructor"
    },
    {
      "constant": false,
      "inputs": [
        {
          "name": "carOwner",
          "type": "address"
        }
      ],
      "name": "setOwner",
      "outputs": [],
      "payable": false,
      "stateMutability": "nonpayable",
      "type": "function"
    },
    {
      "constant": false,
      "inputs": [],
      "name": "getOwner",
      "outputs": [
        {
          "name": "",
          "type": "address"
        }
      ],
      "payable": false,
      "stateMutability": "nonpayable",
      "type": "function"
    },
    {
      "constant": false,
      "inputs": [],
      "name": "getSpecifications",
      "outputs": [
        {
          "name": "",
          "type": "address"
        }
      ],
      "payable": false,
      "stateMutability": "nonpayable",
      "type": "function"
    },
    {
      "constant": false,
      "inputs": [],
      "name": "setHackedStatus",
      "outputs": [],
      "payable": false,
      "stateMutability": "nonpayable",
      "type": "function"
    },
    {
      "constant": false,
      "inputs": [],
      "name": "wasHacked",
      "outputs": [
        {
          "name": "",
          "type": "bool"
        }
      ],
      "payable": false,
      "stateMutability": "nonpayable",
      "type": "function"
    },
    {
      "constant": false,
      "inputs": [],
      "name": "getEmissionFabric",
      "outputs": [
        {
          "name": "",
          "type": "address"
        }
      ],
      "payable": false,
      "stateMutability": "nonpayable",
      "type": "function"
    },
    {
      "constant": false,
      "inputs": [],
      "name": "getInsurance",
      "outputs": [
        {
          "name": "",
          "type": "address"
        }
      ],
      "payable": false,
      "stateMutability": "nonpayable",
      "type": "function"
    }
  ],
  "bytecode": "0x60606040526000600360146101000a81548160ff021916908315150217905550341561002a57600080fd5b6040516060806104ce8339810160405280805190602001909190805190602001909190805190602001909190505082600160006101000a81548173ffffffffffffffffffffffffffffffffffffffff021916908373ffffffffffffffffffffffffffffffffffffffff16021790555081600260006101000a81548173ffffffffffffffffffffffffffffffffffffffff021916908373ffffffffffffffffffffffffffffffffffffffff16021790555080600360006101000a81548173ffffffffffffffffffffffffffffffffffffffff021916908373ffffffffffffffffffffffffffffffffffffffff1602179055505050506103a18061012d6000396000f300606060405260043610610083576000357c0100000000000000000000000000000000000000000000000000000000900463ffffffff16806303e1dc771461008857806313af4035146100b5578063267a8da0146100ee57806336b2e82a1461014357806362ebb01e146101985780637e0a8324146101ed578063893d20e814610202575b600080fd5b341561009357600080fd5b61009b610257565b604051808215151515815260200191505060405180910390f35b34156100c057600080fd5b6100ec600480803573ffffffffffffffffffffffffffffffffffffffff1690602001909190505061026e565b005b34156100f957600080fd5b6101016102b1565b604051808273ffffffffffffffffffffffffffffffffffffffff1673ffffffffffffffffffffffffffffffffffffffff16815260200191505060405180910390f35b341561014e57600080fd5b6101566102db565b604051808273ffffffffffffffffffffffffffffffffffffffff1673ffffffffffffffffffffffffffffffffffffffff16815260200191505060405180910390f35b34156101a357600080fd5b6101ab610305565b604051808273ffffffffffffffffffffffffffffffffffffffff1673ffffffffffffffffffffffffffffffffffffffff16815260200191505060405180910390f35b34156101f857600080fd5b61020061032f565b005b341561020d57600080fd5b61021561034c565b604051808273ffffffffffffffffffffffffffffffffffffffff1673ffffffffffffffffffffffffffffffffffffffff16815260200191505060405180910390f35b6000600360149054906101000a900460ff16905090565b806000806101000a81548173ffffffffffffffffffffffffffffffffffffffff021916908373ffffffffffffffffffffffffffffffffffffffff16021790555050565b6000600360009054906101000a900473ffffffffffffffffffffffffffffffffffffffff16905090565b6000600260009054906101000a900473ffffffffffffffffffffffffffffffffffffffff16905090565b6000600160009054906101000a900473ffffffffffffffffffffffffffffffffffffffff16905090565b6000600360146101000a81548160ff021916908315150217905550565b60008060009054906101000a900473ffffffffffffffffffffffffffffffffffffffff169050905600a165627a7a723058206fc6d589452e3f6b30c592b5f7bb129c5699f45cc2e39f56fee84093c03efd3d0029",
  "source": "pragma solidity ^0.4.0;\n\nimport \"./Participant.sol\";\nimport \"./Specifications.sol\";\nimport \"./Fabric.sol\";\nimport \"./Insurance.sol\";\n\ncontract Car {\n    Participant private owner;\n\n    Specifications private specs;\n\n    Fabric private emisFabric;\n\n    Insurance insurance;\n\n    bool private hacked = false;\n\n    function Car(Specifications s, Fabric f, Insurance i) public {\n        specs = s;\n\n        emisFabric = f;\n\n        insurance = i;\n    }\n\n    function setOwner(Participant carOwner) public {\n        owner = carOwner;\n    }\n\n    function getOwner() public returns (Participant){\n        return owner;\n    }\n\n    function getSpecifications() public returns (Specifications){\n        return specs;\n    }\n\n    function setHackedStatus(){\n        hacked = false;\n    }\n\n    function wasHacked() returns (bool){\n        return hacked;\n    }\n\n    function getEmissionFabric() returns (Fabric){\n        return emisFabric;\n    }\n\n    function getInsurance() returns (Insurance){\n        return insurance;\n    }\n}\n",
  "sourcePath": "/Users/ivanan/Documents/workspace/autoCoin/contracts/Car.sol",
  "compiler": {
    "name": "solc",
    "version": "0.4.21+commit.dfe3193c.Emscripten.clang"
  },
  "schemaVersion": "2.0.0",
  "updatedAt": "2018-04-25T13:57:35.434Z"
}