{
  "contractName": "Fabric",
  "abi": [
    {
      "constant": true,
      "inputs": [
        {
          "name": "",
          "type": "uint256"
        }
      ],
      "name": "priceList",
      "outputs": [
        {
          "name": "",
          "type": "uint256"
        }
      ],
      "payable": false,
      "stateMutability": "view",
      "type": "function"
    },
    {
      "inputs": [],
      "payable": false,
      "stateMutability": "nonpayable",
      "type": "constructor"
    },
    {
      "constant": false,
      "inputs": [],
      "name": "generatePrices",
      "outputs": [],
      "payable": false,
      "stateMutability": "nonpayable",
      "type": "function"
    },
    {
      "constant": false,
      "inputs": [
        {
          "name": "price",
          "type": "uint256"
        },
        {
          "name": "model",
          "type": "uint8"
        },
        {
          "name": "color",
          "type": "uint8"
        }
      ],
      "name": "getCar",
      "outputs": [
        {
          "name": "",
          "type": "address"
        }
      ],
      "payable": false,
      "stateMutability": "nonpayable",
      "type": "function"
    }
  ],
  "bytecode": "0x6060604052341561000f57600080fd5b61002a61002f6401000000000261013b176401000000009004565b610235565b61138860008080600d81111561004157fe5b8152602001908152602001600020819055506111946000806001600d81111561006657fe5b815260200190815260200160002081905550611b586000806002600d81111561008b57fe5b8152602001908152602001600020819055506110046000806003600d8111156100b057fe5b815260200190815260200160002081905550610dac6000806004600d8111156100d557fe5b8152602001908152602001600020819055506110cc6000806005600d8111156100fa57fe5b8152602001908152602001600020819055506113886000806006600d81111561011f57fe5b8152602001908152602001600020819055506110cc6000806007600d81111561014457fe5b815260200190815260200160002081905550610bb86000806008600d81111561016957fe5b815260200190815260200160002081905550610d486000806009600d81111561018e57fe5b815260200190815260200160002081905550611130600080600a600d8111156101b357fe5b815260200190815260200160002081905550610b54600080600b600d8111156101d857fe5b815260200190815260200160002081905550610a8c600080600c600d8111156101fd57fe5b815260200190815260200160002081905550610c80600080600d8081111561022157fe5b815260200190815260200160002081905550565b610bc7806102446000396000f300606060405260043610610057576000357c0100000000000000000000000000000000000000000000000000000000900463ffffffff168063045585a41461005c5780633249dc72146100935780634dc20ae5146100a8575b600080fd5b341561006757600080fd5b61007d6004808035906020019091905050610123565b6040518082815260200191505060405180910390f35b341561009e57600080fd5b6100a661013b565b005b34156100b357600080fd5b6100e1600480803590602001909190803560ff1690602001909190803560ff16906020019091905050610341565b604051808273ffffffffffffffffffffffffffffffffffffffff1673ffffffffffffffffffffffffffffffffffffffff16815260200191505060405180910390f35b60006020528060005260406000206000915090505481565b61138860008080600d81111561014d57fe5b8152602001908152602001600020819055506111946000806001600d81111561017257fe5b815260200190815260200160002081905550611b586000806002600d81111561019757fe5b8152602001908152602001600020819055506110046000806003600d8111156101bc57fe5b815260200190815260200160002081905550610dac6000806004600d8111156101e157fe5b8152602001908152602001600020819055506110cc6000806005600d81111561020657fe5b8152602001908152602001600020819055506113886000806006600d81111561022b57fe5b8152602001908152602001600020819055506110cc6000806007600d81111561025057fe5b815260200190815260200160002081905550610bb86000806008600d81111561027557fe5b815260200190815260200160002081905550610d486000806009600d81111561029a57fe5b815260200190815260200160002081905550611130600080600a600d8111156102bf57fe5b815260200190815260200160002081905550610b54600080600b600d8111156102e457fe5b815260200190815260200160002081905550610a8c600080600c600d81111561030957fe5b815260200190815260200160002081905550610c80600080600d8081111561032d57fe5b815260200190815260200160002081905550565b6000806000818054806001018281610359919061056b565b916000526020600020900160008090919091505550818054806001018281610381919061056b565b9160005260206000209001600080909190915055508180548060010182816103a9919061056b565b9160005260206000209001600080909190915055508385836103c9610597565b808460048111156103d657fe5b60ff16815260200183600d8111156103ea57fe5b60ff16815260200180602001828103825283818154815260200191508054801561043357602002820191906000526020600020905b81548152602001906001019080831161041f575b5050945050505050604051809103906000f080151561045157600080fd5b905061045d8682610468565b925050509392505050565b6000826000808473ffffffffffffffffffffffffffffffffffffffff1663a0bfa1e06040518163ffffffff167c0100000000000000000000000000000000000000000000000000000000028152600401602060405180830381600087803b15156104d157600080fd5b5af115156104de57600080fd5b50505060405180519050600d8111156104f357fe5b81526020019081526020016000205410151561050e57600080fd5b816105176105a7565b808273ffffffffffffffffffffffffffffffffffffffff1673ffffffffffffffffffffffffffffffffffffffff168152602001915050604051809103906000f080151561056357600080fd5b905092915050565b8154818355818115116105925781836000526020600020918201910161059191906105b7565b5b505050565b604051610347806105dd83390190565b6040516102788061092483390190565b6105d991905b808211156105d55760008160009055506001016105bd565b5090565b90560060606040526004600081548110151561001457fe5b9060005260206000209001546000556004600181548110151561003357fe5b9060005260206000209001546001556004600281548110151561005257fe5b906000526020600020900154600255341561006c57600080fd5b6040516103473803806103478339810160405280805190602001909190805190602001909190805182019190505082600360006101000a81548160ff021916908360048111156100b857fe5b021790555081600360016101000a81548160ff0219169083600d8111156100db57fe5b021790555080600490805190602001906100f69291906100ff565b50505050610171565b82805482825590600052602060002090810192821561013b579160200282015b8281111561013a57825182559160200191906001019061011f565b5b509050610148919061014c565b5090565b61016e91905b8082111561016a576000816000905550600101610152565b5090565b90565b6101c7806101806000396000f30060606040526004361061006d576000357c0100000000000000000000000000000000000000000000000000000000900463ffffffff16806315585289146100725780639a86139b1461009b578063a0bfa1e0146100d2578063a29b6c1214610109578063d8124c5f14610132575b600080fd5b341561007d57600080fd5b61008561015b565b6040518082815260200191505060405180910390f35b34156100a657600080fd5b6100ae610161565b604051808260048111156100be57fe5b60ff16815260200191505060405180910390f35b34156100dd57600080fd5b6100e5610178565b6040518082600d8111156100f557fe5b60ff16815260200191505060405180910390f35b341561011457600080fd5b61011c61018f565b6040518082815260200191505060405180910390f35b341561013d57600080fd5b610145610195565b6040518082815260200191505060405180910390f35b60005481565b6000600360009054906101000a900460ff16905090565b6000600360019054906101000a900460ff16905090565b60025481565b600154815600a165627a7a7230582070e4ed0b90487f0d213e748cc8e1cd7fbc6f3c8c9b8ec5b0e2746504901cd2ba00296060604052341561000f57600080fd5b6040516020806102788339810160405280805190602001909190505080600160006101000a81548173ffffffffffffffffffffffffffffffffffffffff021916908373ffffffffffffffffffffffffffffffffffffffff160217905550506101fc8061007c6000396000f300606060405260043610610057576000357c0100000000000000000000000000000000000000000000000000000000900463ffffffff16806313af40351461005c578063893d20e8146100955780638da5cb5b146100ea575b600080fd5b341561006757600080fd5b610093600480803573ffffffffffffffffffffffffffffffffffffffff1690602001909190505061013f565b005b34156100a057600080fd5b6100a8610182565b604051808273ffffffffffffffffffffffffffffffffffffffff1673ffffffffffffffffffffffffffffffffffffffff16815260200191505060405180910390f35b34156100f557600080fd5b6100fd6101ab565b604051808273ffffffffffffffffffffffffffffffffffffffff1673ffffffffffffffffffffffffffffffffffffffff16815260200191505060405180910390f35b806000806101000a81548173ffffffffffffffffffffffffffffffffffffffff021916908373ffffffffffffffffffffffffffffffffffffffff16021790555050565b60008060009054906101000a900473ffffffffffffffffffffffffffffffffffffffff16905090565b6000809054906101000a900473ffffffffffffffffffffffffffffffffffffffff16815600a165627a7a72305820d45c3972ca255868b6f581a2152a6f703589e83fbf371134dbc658fd38c09c7f0029a165627a7a72305820e65dc553cd86891f8195c0bbc80684c93c3dbf5ec3183c2ae05bcdaa827954d80029",
  "source": "pragma solidity ^0.4.0;\n\nimport './Car.sol';\nimport './Specifications.sol';\n\ncontract Fabric {\n    mapping(uint => uint) public priceList;\n\n    function Fabric(){\n        generatePrices();\n    }\n\n    function generatePrices(){\n        priceList[uint(Specifications.Model.WV)] = 5000;\n        priceList[uint(Specifications.Model.SKODA)] = 4500;\n        priceList[uint(Specifications.Model.MERCEDES)] = 7000;\n        priceList[uint(Specifications.Model.PEUGEOT)] = 4100;\n        priceList[uint(Specifications.Model.FIAT)] = 3500;\n        priceList[uint(Specifications.Model.FORD)] = 4300;\n        priceList[uint(Specifications.Model.TOYOTA)] = 5000;\n        priceList[uint(Specifications.Model.NISSAN)] = 4300;\n        priceList[uint(Specifications.Model.RENAULT)] = 3000;\n        priceList[uint(Specifications.Model.CHEVROLET)] = 3400;\n        priceList[uint(Specifications.Model.HYUNDAY)] = 4400;\n        priceList[uint(Specifications.Model.VAZ)] = 2900;\n        priceList[uint(Specifications.Model.UAZ)] = 2700;\n        priceList[uint(Specifications.Model.GAZ)] = 3200;\n    }\n\n    function mintCar(uint price, Specifications spec) private returns (Car){\n        require(priceList[uint(spec.getModel())] < price);\n\n        return new Car(spec);\n    }\n\n    function getCar(uint price, Specifications.Model model, Specifications.Color color) public returns (Car){\n\n        uint[] storage characteristics;\n\n        characteristics.push(0);\n        characteristics.push(0);\n        characteristics.push(0);\n\n        Specifications spec = new Specifications(color, model, characteristics);\n\n        return mintCar(price, spec);\n\n    }\n\n}\n",
  "sourcePath": "/Users/ivanan/Documents/workspace/AutoCoin/contracts/Fabric.sol",
  "compiler": {
    "name": "solc",
    "version": "0.4.21+commit.dfe3193c.Emscripten.clang"
  },
  "schemaVersion": "2.0.0",
  "updatedAt": "2018-04-22T15:48:36.005Z"
}