{
  "contractName": "Fabric",
  "abi": [
    {
      "constant": true,
      "inputs": [
        {
          "name": "",
          "type": "uint256"
        }
      ],
      "name": "priceList",
      "outputs": [
        {
          "name": "",
          "type": "uint256"
        }
      ],
      "payable": false,
      "stateMutability": "view",
      "type": "function"
    },
    {
      "inputs": [],
      "payable": false,
      "stateMutability": "nonpayable",
      "type": "constructor"
    },
    {
      "constant": false,
      "inputs": [],
      "name": "generatePrices",
      "outputs": [],
      "payable": false,
      "stateMutability": "nonpayable",
      "type": "function"
    },
    {
      "constant": false,
      "inputs": [
        {
          "name": "model",
          "type": "uint8"
        }
      ],
      "name": "getPrice",
      "outputs": [
        {
          "name": "",
          "type": "uint256"
        }
      ],
      "payable": false,
      "stateMutability": "nonpayable",
      "type": "function"
    },
    {
      "constant": false,
      "inputs": [
        {
          "name": "addr",
          "type": "address"
        }
      ],
      "name": "setAddress",
      "outputs": [],
      "payable": false,
      "stateMutability": "nonpayable",
      "type": "function"
    },
    {
      "constant": false,
      "inputs": [],
      "name": "getAddress",
      "outputs": [
        {
          "name": "",
          "type": "address"
        }
      ],
      "payable": false,
      "stateMutability": "nonpayable",
      "type": "function"
    },
    {
      "constant": false,
      "inputs": [
        {
          "name": "price",
          "type": "uint256"
        },
        {
          "name": "model",
          "type": "uint8"
        },
        {
          "name": "color",
          "type": "uint8"
        }
      ],
      "name": "getCar",
      "outputs": [
        {
          "name": "",
          "type": "address"
        }
      ],
      "payable": false,
      "stateMutability": "nonpayable",
      "type": "function"
    }
  ],
  "bytecode": "0x6060604052341561000f57600080fd5b61002a61002f64010000000002610224176401000000009004565b610235565b61138860008080600d81111561004157fe5b8152602001908152602001600020819055506111946000806001600d81111561006657fe5b815260200190815260200160002081905550611b586000806002600d81111561008b57fe5b8152602001908152602001600020819055506110046000806003600d8111156100b057fe5b815260200190815260200160002081905550610dac6000806004600d8111156100d557fe5b8152602001908152602001600020819055506110cc6000806005600d8111156100fa57fe5b8152602001908152602001600020819055506113886000806006600d81111561011f57fe5b8152602001908152602001600020819055506110cc6000806007600d81111561014457fe5b815260200190815260200160002081905550610bb86000806008600d81111561016957fe5b815260200190815260200160002081905550610d486000806009600d81111561018e57fe5b815260200190815260200160002081905550611130600080600a600d8111156101b357fe5b815260200190815260200160002081905550610b54600080600b600d8111156101d857fe5b815260200190815260200160002081905550610a8c600080600c600d8111156101fd57fe5b815260200190815260200160002081905550610c80600080600d8081111561022157fe5b815260200190815260200160002081905550565b610d45806102446000396000f300606060405260043610610078576000357c0100000000000000000000000000000000000000000000000000000000900463ffffffff168063045585a41461007d5780633249dc72146100b457806337f1e7f2146100c957806338cc4831146101035780634dc20ae514610158578063e30081a0146101d3575b600080fd5b341561008857600080fd5b61009e600480803590602001909190505061020c565b6040518082815260200191505060405180910390f35b34156100bf57600080fd5b6100c7610224565b005b34156100d457600080fd5b6100ed600480803560ff1690602001909190505061042a565b6040518082815260200191505060405180910390f35b341561010e57600080fd5b610116610451565b604051808273ffffffffffffffffffffffffffffffffffffffff1673ffffffffffffffffffffffffffffffffffffffff16815260200191505060405180910390f35b341561016357600080fd5b610191600480803590602001909190803560ff1690602001909190803560ff1690602001909190505061047b565b604051808273ffffffffffffffffffffffffffffffffffffffff1673ffffffffffffffffffffffffffffffffffffffff16815260200191505060405180910390f35b34156101de57600080fd5b61020a600480803573ffffffffffffffffffffffffffffffffffffffff169060200190919050506105a2565b005b60006020528060005260406000206000915090505481565b61138860008080600d81111561023657fe5b8152602001908152602001600020819055506111946000806001600d81111561025b57fe5b815260200190815260200160002081905550611b586000806002600d81111561028057fe5b8152602001908152602001600020819055506110046000806003600d8111156102a557fe5b815260200190815260200160002081905550610dac6000806004600d8111156102ca57fe5b8152602001908152602001600020819055506110cc6000806005600d8111156102ef57fe5b8152602001908152602001600020819055506113886000806006600d81111561031457fe5b8152602001908152602001600020819055506110cc6000806007600d81111561033957fe5b815260200190815260200160002081905550610bb86000806008600d81111561035e57fe5b815260200190815260200160002081905550610d486000806009600d81111561038357fe5b815260200190815260200160002081905550611130600080600a600d8111156103a857fe5b815260200190815260200160002081905550610b54600080600b600d8111156103cd57fe5b815260200190815260200160002081905550610a8c600080600c600d8111156103f257fe5b815260200190815260200160002081905550610c80600080600d8081111561041657fe5b815260200190815260200160002081905550565b600080600083600d81111561043b57fe5b8152602001908152602001600020549050919050565b6000600160009054906101000a900473ffffffffffffffffffffffffffffffffffffffff16905090565b600080600081805480600101828161049391906106e9565b9160005260206000209001600080909190915055508180548060010182816104bb91906106e9565b9160005260206000209001600080909190915055508180548060010182816104e391906106e9565b916000526020600020900160008090919091505550838583610503610715565b8084600481111561051057fe5b60ff16815260200183600d81111561052457fe5b60ff16815260200180602001828103825283818154815260200191508054801561056d57602002820191906000526020600020905b815481526020019060010190808311610559575b5050945050505050604051809103906000f080151561058b57600080fd5b905061059786826105e6565b925050509392505050565b80600160006101000a81548173ffffffffffffffffffffffffffffffffffffffff021916908373ffffffffffffffffffffffffffffffffffffffff16021790555050565b6000826000808473ffffffffffffffffffffffffffffffffffffffff1663a0bfa1e06040518163ffffffff167c0100000000000000000000000000000000000000000000000000000000028152600401602060405180830381600087803b151561064f57600080fd5b5af1151561065c57600080fd5b50505060405180519050600d81111561067157fe5b81526020019081526020016000205410151561068c57600080fd5b81610695610725565b808273ffffffffffffffffffffffffffffffffffffffff1673ffffffffffffffffffffffffffffffffffffffff168152602001915050604051809103906000f08015156106e157600080fd5b905092915050565b8154818355818115116107105781836000526020600020918201910161070f9190610735565b5b505050565b6040516103478061075b83390190565b60405161027880610aa283390190565b61075791905b8082111561075357600081600090555060010161073b565b5090565b90560060606040526004600081548110151561001457fe5b9060005260206000209001546000556004600181548110151561003357fe5b9060005260206000209001546001556004600281548110151561005257fe5b906000526020600020900154600255341561006c57600080fd5b6040516103473803806103478339810160405280805190602001909190805190602001909190805182019190505082600360006101000a81548160ff021916908360048111156100b857fe5b021790555081600360016101000a81548160ff0219169083600d8111156100db57fe5b021790555080600490805190602001906100f69291906100ff565b50505050610171565b82805482825590600052602060002090810192821561013b579160200282015b8281111561013a57825182559160200191906001019061011f565b5b509050610148919061014c565b5090565b61016e91905b8082111561016a576000816000905550600101610152565b5090565b90565b6101c7806101806000396000f30060606040526004361061006d576000357c0100000000000000000000000000000000000000000000000000000000900463ffffffff168063155852891461007257806343f9778a1461009b5780634cdd745e146100c45780639a86139b146100ed578063a0bfa1e014610124575b600080fd5b341561007d57600080fd5b61008561015b565b6040518082815260200191505060405180910390f35b34156100a657600080fd5b6100ae610161565b6040518082815260200191505060405180910390f35b34156100cf57600080fd5b6100d7610167565b6040518082815260200191505060405180910390f35b34156100f857600080fd5b61010061016d565b6040518082600481111561011057fe5b60ff16815260200191505060405180910390f35b341561012f57600080fd5b610137610184565b6040518082600d81111561014757fe5b60ff16815260200191505060405180910390f35b60005481565b60015481565b60025481565b6000600360009054906101000a900460ff16905090565b6000600360019054906101000a900460ff169050905600a165627a7a72305820c064a0a70590fd807ff9ff3b5901aa0532216d0771c7f5fd073ac8ed8d6d900700296060604052341561000f57600080fd5b6040516020806102788339810160405280805190602001909190505080600160006101000a81548173ffffffffffffffffffffffffffffffffffffffff021916908373ffffffffffffffffffffffffffffffffffffffff160217905550506101fc8061007c6000396000f300606060405260043610610057576000357c0100000000000000000000000000000000000000000000000000000000900463ffffffff16806313af40351461005c578063893d20e8146100955780638da5cb5b146100ea575b600080fd5b341561006757600080fd5b610093600480803573ffffffffffffffffffffffffffffffffffffffff1690602001909190505061013f565b005b34156100a057600080fd5b6100a8610182565b604051808273ffffffffffffffffffffffffffffffffffffffff1673ffffffffffffffffffffffffffffffffffffffff16815260200191505060405180910390f35b34156100f557600080fd5b6100fd6101ab565b604051808273ffffffffffffffffffffffffffffffffffffffff1673ffffffffffffffffffffffffffffffffffffffff16815260200191505060405180910390f35b806000806101000a81548173ffffffffffffffffffffffffffffffffffffffff021916908373ffffffffffffffffffffffffffffffffffffffff16021790555050565b60008060009054906101000a900473ffffffffffffffffffffffffffffffffffffffff16905090565b6000809054906101000a900473ffffffffffffffffffffffffffffffffffffffff16815600a165627a7a7230582025462d4884cdcd2891cb8e3a20613d661b0842211bb02e83c1a370293fa8ed910029a165627a7a723058202c7899ee954f01732065902f4d0795258dbeedb09661a74270a890cab73d24f20029",
  "source": "pragma solidity ^0.4.0;\n\nimport './Car.sol';\nimport './Specifications.sol';\n\ncontract Fabric {\n    mapping(uint => uint) public priceList;\n\n    address legal;\n\n    function Fabric(){\n        generatePrices();\n    }\n\n    function generatePrices(){\n        priceList[uint(Specifications.Model.WV)] = 5000;\n        priceList[uint(Specifications.Model.SKODA)] = 4500;\n        priceList[uint(Specifications.Model.MERCEDES)] = 7000;\n        priceList[uint(Specifications.Model.PEUGEOT)] = 4100;\n        priceList[uint(Specifications.Model.FIAT)] = 3500;\n        priceList[uint(Specifications.Model.FORD)] = 4300;\n        priceList[uint(Specifications.Model.TOYOTA)] = 5000;\n        priceList[uint(Specifications.Model.NISSAN)] = 4300;\n        priceList[uint(Specifications.Model.RENAULT)] = 3000;\n        priceList[uint(Specifications.Model.CHEVROLET)] = 3400;\n        priceList[uint(Specifications.Model.HYUNDAY)] = 4400;\n        priceList[uint(Specifications.Model.VAZ)] = 2900;\n        priceList[uint(Specifications.Model.UAZ)] = 2700;\n        priceList[uint(Specifications.Model.GAZ)] = 3200;\n    }\n\n    function mintCar(uint price, Specifications spec) private returns (Car){\n        require(priceList[uint(spec.getModel())] < price);\n\n        return new Car(spec);\n    }\n\n    function getPrice(Specifications.Model model) returns (uint){\n        return priceList[uint(model)];\n    }\n\n    function setAddress(address addr){\n        legal = addr;\n    }\n\n    function getAddress() returns (address){\n        return legal;\n    }\n\n    function getCar(uint price, Specifications.Model model, Specifications.Color color) public returns (Car){\n\n        uint[] storage characteristics;\n\n        characteristics.push(0);\n        characteristics.push(0);\n        characteristics.push(0);\n\n        Specifications spec = new Specifications(color, model, characteristics);\n\n        return mintCar(price, spec);\n\n    }\n\n}\n",
  "sourcePath": "/Users/ivanan/Documents/workspace/autoCoin/contracts/Fabric.sol",
  "compiler": {
    "name": "solc",
    "version": "0.4.21+commit.dfe3193c.Emscripten.clang"
  },
  "schemaVersion": "2.0.0",
  "updatedAt": "2018-04-22T19:30:13.453Z"
}