{
  "contractName": "Fabric",
  "abi": [
    {
      "constant": true,
      "inputs": [
        {
          "name": "",
          "type": "uint256"
        }
      ],
      "name": "priceList",
      "outputs": [
        {
          "name": "",
          "type": "uint256"
        }
      ],
      "payable": false,
      "stateMutability": "view",
      "type": "function"
    },
    {
      "inputs": [],
      "payable": false,
      "stateMutability": "nonpayable",
      "type": "constructor"
    },
    {
      "constant": false,
      "inputs": [],
      "name": "generatePrices",
      "outputs": [],
      "payable": false,
      "stateMutability": "nonpayable",
      "type": "function"
    },
    {
      "constant": false,
      "inputs": [
        {
          "name": "model",
          "type": "uint8"
        }
      ],
      "name": "getPrice",
      "outputs": [
        {
          "name": "",
          "type": "uint256"
        }
      ],
      "payable": false,
      "stateMutability": "nonpayable",
      "type": "function"
    },
    {
      "constant": false,
      "inputs": [
        {
          "name": "addr",
          "type": "address"
        }
      ],
      "name": "setAddress",
      "outputs": [],
      "payable": false,
      "stateMutability": "nonpayable",
      "type": "function"
    },
    {
      "constant": false,
      "inputs": [],
      "name": "getAddress",
      "outputs": [
        {
          "name": "",
          "type": "address"
        }
      ],
      "payable": false,
      "stateMutability": "nonpayable",
      "type": "function"
    },
    {
      "constant": false,
      "inputs": [
        {
          "name": "model",
          "type": "uint8"
        },
        {
          "name": "color",
          "type": "uint8"
        },
        {
          "name": "i",
          "type": "address"
        }
      ],
      "name": "getCar",
      "outputs": [
        {
          "name": "",
          "type": "address"
        }
      ],
      "payable": false,
      "stateMutability": "nonpayable",
      "type": "function"
    },
    {
      "constant": false,
      "inputs": [
        {
          "name": "amount",
          "type": "uint256"
        },
        {
          "name": "model",
          "type": "uint8"
        }
      ],
      "name": "isCarAvailable",
      "outputs": [
        {
          "name": "",
          "type": "bool"
        }
      ],
      "payable": false,
      "stateMutability": "nonpayable",
      "type": "function"
    }
  ],
  "bytecode": "0x6060604052341561000f57600080fd5b61002a61002f6401000000000261028c176401000000009004565b610235565b61138860008080600d81111561004157fe5b8152602001908152602001600020819055506111946000806001600d81111561006657fe5b815260200190815260200160002081905550611b586000806002600d81111561008b57fe5b8152602001908152602001600020819055506110046000806003600d8111156100b057fe5b815260200190815260200160002081905550610dac6000806004600d8111156100d557fe5b8152602001908152602001600020819055506110cc6000806005600d8111156100fa57fe5b8152602001908152602001600020819055506113886000806006600d81111561011f57fe5b8152602001908152602001600020819055506110cc6000806007600d81111561014457fe5b815260200190815260200160002081905550610bb86000806008600d81111561016957fe5b815260200190815260200160002081905550610d486000806009600d81111561018e57fe5b815260200190815260200160002081905550611130600080600a600d8111156101b357fe5b815260200190815260200160002081905550610b54600080600b600d8111156101d857fe5b815260200190815260200160002081905550610a8c600080600c600d8111156101fd57fe5b815260200190815260200160002081905550610c80600080600d8081111561022157fe5b815260200190815260200160002081905550565b6110a2806102446000396000f300606060405260043610610083576000357c0100000000000000000000000000000000000000000000000000000000900463ffffffff168063045585a4146100885780633249dc72146100bf57806337f1e7f2146100d457806338cc48311461010e578063c8b8620e14610163578063d6720557146101aa578063e30081a01461023b575b600080fd5b341561009357600080fd5b6100a96004808035906020019091905050610274565b6040518082815260200191505060405180910390f35b34156100ca57600080fd5b6100d261028c565b005b34156100df57600080fd5b6100f8600480803560ff16906020019091905050610492565b6040518082815260200191505060405180910390f35b341561011957600080fd5b6101216104b9565b604051808273ffffffffffffffffffffffffffffffffffffffff1673ffffffffffffffffffffffffffffffffffffffff16815260200191505060405180910390f35b341561016e57600080fd5b610190600480803590602001909190803560ff169060200190919050506104e3565b604051808215151515815260200191505060405180910390f35b34156101b557600080fd5b6101f9600480803560ff1690602001909190803560ff1690602001909190803573ffffffffffffffffffffffffffffffffffffffff1690602001909190505061050d565b604051808273ffffffffffffffffffffffffffffffffffffffff1673ffffffffffffffffffffffffffffffffffffffff16815260200191505060405180910390f35b341561024657600080fd5b610272600480803573ffffffffffffffffffffffffffffffffffffffff16906020019091905050610634565b005b60006020528060005260406000206000915090505481565b61138860008080600d81111561029e57fe5b8152602001908152602001600020819055506111946000806001600d8111156102c357fe5b815260200190815260200160002081905550611b586000806002600d8111156102e857fe5b8152602001908152602001600020819055506110046000806003600d81111561030d57fe5b815260200190815260200160002081905550610dac6000806004600d81111561033257fe5b8152602001908152602001600020819055506110cc6000806005600d81111561035757fe5b8152602001908152602001600020819055506113886000806006600d81111561037c57fe5b8152602001908152602001600020819055506110cc6000806007600d8111156103a157fe5b815260200190815260200160002081905550610bb86000806008600d8111156103c657fe5b815260200190815260200160002081905550610d486000806009600d8111156103eb57fe5b815260200190815260200160002081905550611130600080600a600d81111561041057fe5b815260200190815260200160002081905550610b54600080600b600d81111561043557fe5b815260200190815260200160002081905550610a8c600080600c600d81111561045a57fe5b815260200190815260200160002081905550610c80600080600d8081111561047e57fe5b815260200190815260200160002081905550565b600080600083600d8111156104a357fe5b8152602001908152602001600020549050919050565b6000600160009054906101000a900473ffffffffffffffffffffffffffffffffffffffff16905090565b600080600083600d8111156104f457fe5b8152602001908152602001600020548311905092915050565b6000806000818054806001018281610525919061073f565b91600052602060002090016000809091909150555081805480600101828161054d919061073f565b916000526020600020900160008090919091505550818054806001018281610575919061073f565b91600052602060002090016000809091909150555084868361059561076b565b808460048111156105a257fe5b60ff16815260200183600d8111156105b657fe5b60ff1681526020018060200182810382528381815481526020019150805480156105ff57602002820191906000526020600020905b8154815260200190600101908083116105eb575b5050945050505050604051809103906000f080151561061d57600080fd5b90506106298185610678565b925050509392505050565b80600160006101000a81548173ffffffffffffffffffffffffffffffffffffffff021916908373ffffffffffffffffffffffffffffffffffffffff16021790555050565b600082308361068561077b565b808473ffffffffffffffffffffffffffffffffffffffff1673ffffffffffffffffffffffffffffffffffffffff1681526020018373ffffffffffffffffffffffffffffffffffffffff1673ffffffffffffffffffffffffffffffffffffffff1681526020018273ffffffffffffffffffffffffffffffffffffffff1673ffffffffffffffffffffffffffffffffffffffff1681526020019350505050604051809103906000f080151561073757600080fd5b905092915050565b81548183558181151161076657818360005260206000209182019101610765919061078b565b5b505050565b6040516103f8806107b183390190565b6040516104ce80610ba983390190565b6107ad91905b808211156107a9576000816000905550600101610791565b5090565b905600606060405260008081548110151561001357fe5b9060005260206000209001546001556000600181548110151561003257fe5b9060005260206000209001546002556000600281548110151561005157fe5b9060005260206000209001546003556000600381548110151561007057fe5b9060005260206000209001546004556000600481548110151561008f57fe5b90600052602060002090015460055534156100a957600080fd5b6040516103f83803806103f88339810160405280805190602001909190805190602001909190805182019190505082600660006101000a81548160ff021916908360048111156100f557fe5b021790555081600660016101000a81548160ff0219169083600d81111561011857fe5b0217905550806000908051906020019061013392919061013c565b505050506101ae565b828054828255906000526020600020908101928215610178579160200282015b8281111561017757825182559160200191906001019061015c565b5b5090506101859190610189565b5090565b6101ab91905b808211156101a757600081600090555060010161018f565b5090565b90565b61023b806101bd6000396000f300606060405260043610610083576000357c0100000000000000000000000000000000000000000000000000000000900463ffffffff1680630c4bf1c01461008857806315585289146100b157806343f9778a146100da5780634cdd745e1461010357806355ab21021461012c5780639a86139b14610155578063a0bfa1e01461018c575b600080fd5b341561009357600080fd5b61009b6101c3565b6040518082815260200191505060405180910390f35b34156100bc57600080fd5b6100c46101c9565b6040518082815260200191505060405180910390f35b34156100e557600080fd5b6100ed6101cf565b6040518082815260200191505060405180910390f35b341561010e57600080fd5b6101166101d5565b6040518082815260200191505060405180910390f35b341561013757600080fd5b61013f6101db565b6040518082815260200191505060405180910390f35b341561016057600080fd5b6101686101e1565b6040518082600481111561017857fe5b60ff16815260200191505060405180910390f35b341561019757600080fd5b61019f6101f8565b6040518082600d8111156101af57fe5b60ff16815260200191505060405180910390f35b60045481565b60015481565b60025481565b60035481565b60055481565b6000600660009054906101000a900460ff16905090565b6000600660019054906101000a900460ff169050905600a165627a7a72305820cf63d0d298de1529afcd82a7f36356cbf304f525de52440b3befa4f41e56c7f7002960606040526000600360146101000a81548160ff021916908315150217905550341561002a57600080fd5b6040516060806104ce8339810160405280805190602001909190805190602001909190805190602001909190505082600160006101000a81548173ffffffffffffffffffffffffffffffffffffffff021916908373ffffffffffffffffffffffffffffffffffffffff16021790555081600260006101000a81548173ffffffffffffffffffffffffffffffffffffffff021916908373ffffffffffffffffffffffffffffffffffffffff16021790555080600360006101000a81548173ffffffffffffffffffffffffffffffffffffffff021916908373ffffffffffffffffffffffffffffffffffffffff1602179055505050506103a18061012d6000396000f300606060405260043610610083576000357c0100000000000000000000000000000000000000000000000000000000900463ffffffff16806303e1dc771461008857806313af4035146100b5578063267a8da0146100ee57806336b2e82a1461014357806362ebb01e146101985780637e0a8324146101ed578063893d20e814610202575b600080fd5b341561009357600080fd5b61009b610257565b604051808215151515815260200191505060405180910390f35b34156100c057600080fd5b6100ec600480803573ffffffffffffffffffffffffffffffffffffffff1690602001909190505061026e565b005b34156100f957600080fd5b6101016102b1565b604051808273ffffffffffffffffffffffffffffffffffffffff1673ffffffffffffffffffffffffffffffffffffffff16815260200191505060405180910390f35b341561014e57600080fd5b6101566102db565b604051808273ffffffffffffffffffffffffffffffffffffffff1673ffffffffffffffffffffffffffffffffffffffff16815260200191505060405180910390f35b34156101a357600080fd5b6101ab610305565b604051808273ffffffffffffffffffffffffffffffffffffffff1673ffffffffffffffffffffffffffffffffffffffff16815260200191505060405180910390f35b34156101f857600080fd5b61020061032f565b005b341561020d57600080fd5b61021561034c565b604051808273ffffffffffffffffffffffffffffffffffffffff1673ffffffffffffffffffffffffffffffffffffffff16815260200191505060405180910390f35b6000600360149054906101000a900460ff16905090565b806000806101000a81548173ffffffffffffffffffffffffffffffffffffffff021916908373ffffffffffffffffffffffffffffffffffffffff16021790555050565b6000600360009054906101000a900473ffffffffffffffffffffffffffffffffffffffff16905090565b6000600260009054906101000a900473ffffffffffffffffffffffffffffffffffffffff16905090565b6000600160009054906101000a900473ffffffffffffffffffffffffffffffffffffffff16905090565b6000600360146101000a81548160ff021916908315150217905550565b60008060009054906101000a900473ffffffffffffffffffffffffffffffffffffffff169050905600a165627a7a723058206fc6d589452e3f6b30c592b5f7bb129c5699f45cc2e39f56fee84093c03efd3d0029a165627a7a72305820c30f8d5ce0cd658cd466ad254fc85dd4c65dbc810ad2eef1ea274771424fc2c30029",
  "source": "pragma solidity ^0.4.0;\n\nimport './Car.sol';\nimport './Specifications.sol';\nimport \"./Insurance.sol\";\n\ncontract Fabric {\n    mapping(uint => uint) public priceList;\n\n    address legal;\n\n    function Fabric(){\n        generatePrices();\n    }\n\n    function generatePrices(){\n        priceList[uint(Specifications.Model.WV)] = 5000;\n        priceList[uint(Specifications.Model.SKODA)] = 4500;\n        priceList[uint(Specifications.Model.MERCEDES)] = 7000;\n        priceList[uint(Specifications.Model.PEUGEOT)] = 4100;\n        priceList[uint(Specifications.Model.FIAT)] = 3500;\n        priceList[uint(Specifications.Model.FORD)] = 4300;\n        priceList[uint(Specifications.Model.TOYOTA)] = 5000;\n        priceList[uint(Specifications.Model.NISSAN)] = 4300;\n        priceList[uint(Specifications.Model.RENAULT)] = 3000;\n        priceList[uint(Specifications.Model.CHEVROLET)] = 3400;\n        priceList[uint(Specifications.Model.HYUNDAY)] = 4400;\n        priceList[uint(Specifications.Model.VAZ)] = 2900;\n        priceList[uint(Specifications.Model.UAZ)] = 2700;\n        priceList[uint(Specifications.Model.GAZ)] = 3200;\n    }\n\n    function mintCar(Specifications spec, Insurance ins) private returns (Car){\n        return new Car(spec, this, ins);\n    }\n\n    function getPrice(Specifications.Model model) returns (uint){\n        return priceList[uint(model)];\n    }\n\n    function setAddress(address addr){\n        legal = addr;\n    }\n\n    function getAddress() returns (address){\n        return legal;\n    }\n\n    function getCar(Specifications.Model model, Specifications.Color color, Insurance i) public returns (Car){\n        uint[] storage characteristics;\n\n        characteristics.push(0);\n        characteristics.push(0);\n        characteristics.push(0);\n\n        Specifications spec = new Specifications(color, model, characteristics);\n\n        return mintCar(spec, i);\n\n    }\n\n    function isCarAvailable(uint amount, Specifications.Model model) returns(bool){\n        return amount > priceList[uint(model)];\n    }\n\n}\n",
  "sourcePath": "/Users/ivanan/Documents/workspace/autoCoin/contracts/Fabric.sol",
  "compiler": {
    "name": "solc",
    "version": "0.4.21+commit.dfe3193c.Emscripten.clang"
  },
  "schemaVersion": "2.0.0",
  "updatedAt": "2018-04-25T13:57:35.444Z"
}