{
  "contractName": "Insurance",
  "abi": [
    {
      "constant": false,
      "inputs": [
        {
          "name": "car",
          "type": "address"
        }
      ],
      "name": "pushCar",
      "outputs": [],
      "payable": false,
      "stateMutability": "nonpayable",
      "type": "function"
    },
    {
      "constant": false,
      "inputs": [
        {
          "name": "car",
          "type": "address"
        }
      ],
      "name": "carWasHacked",
      "outputs": [
        {
          "name": "",
          "type": "bool"
        }
      ],
      "payable": false,
      "stateMutability": "nonpayable",
      "type": "function"
    },
    {
      "constant": false,
      "inputs": [
        {
          "name": "car",
          "type": "address"
        }
      ],
      "name": "getRevision",
      "outputs": [
        {
          "name": "",
          "type": "uint256[]"
        }
      ],
      "payable": false,
      "stateMutability": "nonpayable",
      "type": "function"
    },
    {
      "constant": false,
      "inputs": [],
      "name": "getInsurance",
      "outputs": [
        {
          "name": "",
          "type": "address"
        }
      ],
      "payable": false,
      "stateMutability": "nonpayable",
      "type": "function"
    },
    {
      "constant": false,
      "inputs": [],
      "name": "getFinishTime",
      "outputs": [
        {
          "name": "",
          "type": "uint256"
        }
      ],
      "payable": false,
      "stateMutability": "nonpayable",
      "type": "function"
    }
  ],
  "bytecode": "0x6060604052635c2aad80600155341561001757600080fd5b6103aa806100266000396000f30060606040526004361061006d576000357c0100000000000000000000000000000000000000000000000000000000900463ffffffff168063267a8da014610072578063702e1382146100c7578063afc01cb914610100578063b5be12e814610129578063d7f862ec146101b7575b600080fd5b341561007d57600080fd5b610085610208565b604051808273ffffffffffffffffffffffffffffffffffffffff1673ffffffffffffffffffffffffffffffffffffffff16815260200191505060405180910390f35b34156100d257600080fd5b6100fe600480803573ffffffffffffffffffffffffffffffffffffffff16906020019091905050610210565b005b341561010b57600080fd5b610113610276565b6040518082815260200191505060405180910390f35b341561013457600080fd5b610160600480803573ffffffffffffffffffffffffffffffffffffffff16906020019091905050610280565b6040518080602001828103825283818151815260200191508051906020019060200280838360005b838110156101a3578082015181840152602081019050610188565b505050509050019250505060405180910390f35b34156101c257600080fd5b6101ee600480803573ffffffffffffffffffffffffffffffffffffffff1690602001909190505061030f565b604051808215151515815260200191505060405180910390f35b600030905090565b600080548060010182816102249190610319565b9160005260206000209001600083909190916101000a81548173ffffffffffffffffffffffffffffffffffffffff021916908373ffffffffffffffffffffffffffffffffffffffff1602179055505050565b6000600154905090565b610288610345565b6102918261030f565b1561030a578173ffffffffffffffffffffffffffffffffffffffff16637e0a83246040518163ffffffff167c0100000000000000000000000000000000000000000000000000000000028152600401600060405180830381600087803b15156102f957600080fd5b5af1151561030657600080fd5b5050505b919050565b6000809050919050565b8154818355818115116103405781836000526020600020918201910161033f9190610359565b5b505050565b602060405190810160405280600081525090565b61037b91905b8082111561037757600081600090555060010161035f565b5090565b905600a165627a7a72305820b02e292c9f4d5b16415211f61a79307a51461fe7e387328008907c813a77db130029",
  "source": "pragma solidity ^0.4.0;\nimport \"./Car.sol\";\n\ncontract Insurance {\n    Car[] carList;\n\n    uint finishTime = 1546300800;\n\n    mapping(address => uint) fee;\n\n    function pushCar(Car car){\n        carList.push(car);\n    }\n\n    function carWasHacked(Car car) returns (bool){\n        //TODO: compare with data from @link carList.\n        return false;\n    }\n\n    function getRevision(Car car)returns(uint[]){\n        if(carWasHacked(car))\n        car.setHackedStatus();\n    }\n\n    function getInsurance() returns(Insurance){\n        return this;\n    }\n\n    function getFinishTime() returns(uint){\n        return finishTime;\n    }\n}\n",
  "sourcePath": "/Users/ivanan/Documents/workspace/autoCoin/contracts/Insurance.sol",
  "compiler": {
    "name": "solc",
    "version": "0.4.21+commit.dfe3193c.Emscripten.clang"
  },
  "schemaVersion": "2.0.0",
  "updatedAt": "2018-04-25T13:57:35.436Z"
}