{
  "contractName": "Participant",
  "abi": [
    {
      "constant": false,
      "inputs": [
        {
          "name": "price",
          "type": "uint256"
        }
      ],
      "name": "checkBuyPossibility",
      "outputs": [
        {
          "name": "",
          "type": "bool"
        }
      ],
      "payable": false,
      "stateMutability": "nonpayable",
      "type": "function"
    },
    {
      "constant": false,
      "inputs": [
        {
          "name": "lastOwner",
          "type": "address"
        },
        {
          "name": "car",
          "type": "address"
        }
      ],
      "name": "buyCar",
      "outputs": [],
      "payable": false,
      "stateMutability": "nonpayable",
      "type": "function"
    },
    {
      "constant": false,
      "inputs": [
        {
          "name": "fabric",
          "type": "address"
        },
        {
          "name": "specs",
          "type": "address"
        }
      ],
      "name": "buyNewCar",
      "outputs": [],
      "payable": false,
      "stateMutability": "nonpayable",
      "type": "function"
    },
    {
      "constant": false,
      "inputs": [],
      "name": "getBalance",
      "outputs": [
        {
          "name": "",
          "type": "uint256"
        }
      ],
      "payable": false,
      "stateMutability": "nonpayable",
      "type": "function"
    },
    {
      "constant": false,
      "inputs": [],
      "name": "getCar",
      "outputs": [
        {
          "name": "",
          "type": "address"
        }
      ],
      "payable": false,
      "stateMutability": "nonpayable",
      "type": "function"
    },
    {
      "constant": false,
      "inputs": [
        {
          "name": "car",
          "type": "address"
        }
      ],
      "name": "calculatePrice",
      "outputs": [
        {
          "name": "",
          "type": "uint256"
        }
      ],
      "payable": false,
      "stateMutability": "nonpayable",
      "type": "function"
    },
    {
      "constant": false,
      "inputs": [],
      "name": "getAddress",
      "outputs": [
        {
          "name": "",
          "type": "address"
        }
      ],
      "payable": false,
      "stateMutability": "nonpayable",
      "type": "function"
    }
  ],
  "bytecode": "0x6060604052600160009054906101000a900473ffffffffffffffffffffffffffffffffffffffff1673ffffffffffffffffffffffffffffffffffffffff166370a08231306040518263ffffffff167c0100000000000000000000000000000000000000000000000000000000028152600401808273ffffffffffffffffffffffffffffffffffffffff1673ffffffffffffffffffffffffffffffffffffffff168152602001915050602060405180830381600087803b15156100c057600080fd5b5af115156100cd57600080fd5b5050506040518051905060005530600360006101000a81548173ffffffffffffffffffffffffffffffffffffffff021916908373ffffffffffffffffffffffffffffffffffffffff160217905550341561012657600080fd5b6106a4806101356000396000f300606060405260043610610083576000357c0100000000000000000000000000000000000000000000000000000000900463ffffffff16806312065fe0146100885780631dc9b1c1146100b157806338cc4831146100fe57806344f687df14610153578063bb5a80261461018e578063ca04c834146101e6578063d3b927801461023b575b600080fd5b341561009357600080fd5b61009b610293565b6040518082815260200191505060405180910390f35b34156100bc57600080fd5b6100e8600480803573ffffffffffffffffffffffffffffffffffffffff1690602001909190505061029c565b6040518082815260200191505060405180910390f35b341561010957600080fd5b6101116102a8565b604051808273ffffffffffffffffffffffffffffffffffffffff1673ffffffffffffffffffffffffffffffffffffffff16815260200191505060405180910390f35b341561015e57600080fd5b61017460048080359060200190919050506102d2565b604051808215151515815260200191505060405180910390f35b341561019957600080fd5b6101e4600480803573ffffffffffffffffffffffffffffffffffffffff1690602001909190803573ffffffffffffffffffffffffffffffffffffffff169060200190919050506102e1565b005b34156101f157600080fd5b6101f9610528565b604051808273ffffffffffffffffffffffffffffffffffffffff1673ffffffffffffffffffffffffffffffffffffffff16815260200191505060405180910390f35b341561024657600080fd5b610291600480803573ffffffffffffffffffffffffffffffffffffffff1690602001909190803573ffffffffffffffffffffffffffffffffffffffff16906020019091905050610552565b005b60008054905090565b6000610bb89050919050565b6000600360009054906101000a900473ffffffffffffffffffffffffffffffffffffffff16905090565b60008160005410159050919050565b60006103658373ffffffffffffffffffffffffffffffffffffffff1663ca04c8346040518163ffffffff167c0100000000000000000000000000000000000000000000000000000000028152600401602060405180830381600087803b151561034957600080fd5b5af1151561035657600080fd5b5050506040518051905061029c565b9050600054811115151561037857600080fd5b600160009054906101000a900473ffffffffffffffffffffffffffffffffffffffff1673ffffffffffffffffffffffffffffffffffffffff166323b872dd8473ffffffffffffffffffffffffffffffffffffffff166338cc48316040518163ffffffff167c0100000000000000000000000000000000000000000000000000000000028152600401602060405180830381600087803b151561041957600080fd5b5af1151561042657600080fd5b50505060405180519050600360009054906101000a900473ffffffffffffffffffffffffffffffffffffffff16846040518463ffffffff167c0100000000000000000000000000000000000000000000000000000000028152600401808473ffffffffffffffffffffffffffffffffffffffff1673ffffffffffffffffffffffffffffffffffffffff1681526020018373ffffffffffffffffffffffffffffffffffffffff1673ffffffffffffffffffffffffffffffffffffffff1681526020018281526020019350505050602060405180830381600087803b151561050b57600080fd5b5af1151561051857600080fd5b5050506040518051905050505050565b6000600260009054906101000a900473ffffffffffffffffffffffffffffffffffffffff16905090565b60008273ffffffffffffffffffffffffffffffffffffffff166337f1e7f28373ffffffffffffffffffffffffffffffffffffffff1663a0bfa1e06040518163ffffffff167c0100000000000000000000000000000000000000000000000000000000028152600401602060405180830381600087803b15156105d357600080fd5b5af115156105e057600080fd5b505050604051805190506040518263ffffffff167c01000000000000000000000000000000000000000000000000000000000281526004018082600d81111561062557fe5b60ff168152602001915050602060405180830381600087803b151561064957600080fd5b5af1151561065657600080fd5b505050604051805190509050600054811115151561067357600080fd5b5050505600a165627a7a72305820edb4bac98a4c07e030f0a6d5399720ebeec92e4ec7baf12a247871619b3e45350029",
  "source": "pragma solidity ^0.4.0;\n\nimport \"./Car.sol\";\nimport \"./SmartCoin.sol\";\nimport \"./Fabric.sol\";\n\ncontract Participant {\n    uint private balance = coin.balanceOf(this);\n\n    SmartCoin private coin;\n\n    Car car;\n\n    address myAddr = this;\n\n    function checkBuyPossibility(uint price) public returns (bool){\n        return balance >= price;\n\n    }\n\n    function buyCar(Participant lastOwner, Car car) public {\n        uint price = calculatePrice(lastOwner.getCar());\n        require(price <= balance);\n\n        coin.transferFrom(lastOwner.getAddress(), myAddr, price);\n    }\n\n    function buyNewCar(Fabric fabric, Specifications specs){\nuint price = fabric.getPrice(specs.getModel());\n        require(price <= balance);\n    }\n\n    function getBalance() returns (uint){\n        return balance;\n    }\n\n    function getCar() returns (Car){\n        return car;\n    }\n\n    function calculatePrice(Car car) returns (uint){\n        return 3000;\n    }\n\n    function getAddress() returns(address){\n        return myAddr;\n    }\n}\n",
  "sourcePath": "/Users/ivanan/Documents/workspace/AutoCoin/contracts/Participant.sol",
  "compiler": {
    "name": "solc",
    "version": "0.4.21+commit.dfe3193c.Emscripten.clang"
  },
  "schemaVersion": "2.0.0",
  "updatedAt": "2018-04-22T19:16:19.852Z"
}