{
  "contractName": "Participant",
  "abi": [
    {
      "constant": false,
      "inputs": [
        {
          "name": "price",
          "type": "uint256"
        }
      ],
      "name": "checkBuyPossibility",
      "outputs": [
        {
          "name": "",
          "type": "bool"
        }
      ],
      "payable": false,
      "stateMutability": "nonpayable",
      "type": "function"
    },
    {
      "constant": false,
      "inputs": [
        {
          "name": "lastOwner",
          "type": "address"
        },
        {
          "name": "car",
          "type": "address"
        }
      ],
      "name": "buyCar",
      "outputs": [],
      "payable": false,
      "stateMutability": "nonpayable",
      "type": "function"
    }
  ],
  "bytecode": "0x606060405260008055341561001357600080fd5b61011a806100226000396000f3006060604052600436106049576000357c0100000000000000000000000000000000000000000000000000000000900463ffffffff16806344f687df14604e578063bb5a8026146086575b600080fd5b3415605857600080fd5b606c600480803590602001909190505060db565b604051808215151515815260200191505060405180910390f35b3415609057600080fd5b60d9600480803573ffffffffffffffffffffffffffffffffffffffff1690602001909190803573ffffffffffffffffffffffffffffffffffffffff1690602001909190505060ea565b005b60008160005410159050919050565b50505600a165627a7a7230582063dddd46bdbfcd657e51384b828d87d0e021cd7a9ba9b39a5c0cd1624518967e0029",
  "source": "pragma solidity ^0.4.0;\n\nimport \"./Car.sol\";\nimport \"./SmartCoin.sol\";\n\ncontract Participant {\n    uint private balance = 0;\n\n    SmartCoin private coins;\n\n    function checkBuyPossibility(uint price) public returns (bool){\n        return balance >= price;\n\n    }\n\n    function buyCar(address lastOwner, Car car) public {\n\n    }\n}\n",
  "sourcePath": "/Users/ivanan/Documents/workspace/AutoCoin/contracts/Participant.sol",
  "compiler": {
    "name": "solc",
    "version": "0.4.21+commit.dfe3193c.Emscripten.clang"
  },
  "schemaVersion": "2.0.0",
  "updatedAt": "2018-04-22T15:48:36.007Z"
}