{
  "contractName": "Participant",
  "abi": [
    {
      "constant": false,
      "inputs": [
        {
          "name": "price",
          "type": "uint256"
        }
      ],
      "name": "checkBuyPossibility",
      "outputs": [
        {
          "name": "",
          "type": "bool"
        }
      ],
      "payable": false,
      "stateMutability": "nonpayable",
      "type": "function"
    },
    {
      "constant": false,
      "inputs": [
        {
          "name": "lastOwner",
          "type": "address"
        },
        {
          "name": "car",
          "type": "address"
        },
        {
          "name": "ins",
          "type": "address"
        }
      ],
      "name": "buyCar",
      "outputs": [],
      "payable": false,
      "stateMutability": "nonpayable",
      "type": "function"
    },
    {
      "constant": false,
      "inputs": [
        {
          "name": "fabric",
          "type": "address"
        },
        {
          "name": "model",
          "type": "uint8"
        },
        {
          "name": "color",
          "type": "uint8"
        }
      ],
      "name": "buyNewCar",
      "outputs": [],
      "payable": false,
      "stateMutability": "nonpayable",
      "type": "function"
    },
    {
      "constant": false,
      "inputs": [
        {
          "name": "car",
          "type": "address"
        }
      ],
      "name": "availableInsurance",
      "outputs": [
        {
          "name": "",
          "type": "bool"
        }
      ],
      "payable": false,
      "stateMutability": "nonpayable",
      "type": "function"
    },
    {
      "constant": false,
      "inputs": [],
      "name": "getBalance",
      "outputs": [
        {
          "name": "",
          "type": "uint256"
        }
      ],
      "payable": false,
      "stateMutability": "nonpayable",
      "type": "function"
    },
    {
      "constant": false,
      "inputs": [],
      "name": "getCar",
      "outputs": [
        {
          "name": "",
          "type": "address"
        }
      ],
      "payable": false,
      "stateMutability": "nonpayable",
      "type": "function"
    },
    {
      "constant": false,
      "inputs": [
        {
          "name": "car",
          "type": "address"
        }
      ],
      "name": "calculatePrice",
      "outputs": [
        {
          "name": "",
          "type": "uint256"
        }
      ],
      "payable": false,
      "stateMutability": "nonpayable",
      "type": "function"
    },
    {
      "constant": false,
      "inputs": [],
      "name": "getAddress",
      "outputs": [
        {
          "name": "",
          "type": "address"
        }
      ],
      "payable": false,
      "stateMutability": "nonpayable",
      "type": "function"
    },
    {
      "constant": false,
      "inputs": [
        {
          "name": "amount",
          "type": "uint256"
        }
      ],
      "name": "fillUp",
      "outputs": [],
      "payable": false,
      "stateMutability": "nonpayable",
      "type": "function"
    }
  ],
  "bytecode": "0x6060604052600160009054906101000a900473ffffffffffffffffffffffffffffffffffffffff1673ffffffffffffffffffffffffffffffffffffffff166370a08231306040518263ffffffff167c0100000000000000000000000000000000000000000000000000000000028152600401808273ffffffffffffffffffffffffffffffffffffffff1673ffffffffffffffffffffffffffffffffffffffff168152602001915050602060405180830381600087803b15156100c057600080fd5b5af115156100cd57600080fd5b5050506040518051905060005534156100e557600080fd5b611292806100f46000396000f300606060405260043610610099576000357c0100000000000000000000000000000000000000000000000000000000900463ffffffff16806312065fe01461009e5780631dc9b1c1146100c757806338cc48311461011457806344f687df146101695780637cf7dbb5146101a4578063b9a993021461021b578063ca04c8341461026c578063f036a970146102c1578063f870408d146102e4575b600080fd5b34156100a957600080fd5b6100b1610335565b6040518082815260200191505060405180910390f35b34156100d257600080fd5b6100fe600480803573ffffffffffffffffffffffffffffffffffffffff1690602001909190505061033e565b6040518082815260200191505060405180910390f35b341561011f57600080fd5b61012761054c565b604051808273ffffffffffffffffffffffffffffffffffffffff1673ffffffffffffffffffffffffffffffffffffffff16815260200191505060405180910390f35b341561017457600080fd5b61018a6004808035906020019091905050610554565b604051808215151515815260200191505060405180910390f35b34156101af57600080fd5b610219600480803573ffffffffffffffffffffffffffffffffffffffff1690602001909190803573ffffffffffffffffffffffffffffffffffffffff1690602001909190803573ffffffffffffffffffffffffffffffffffffffff16906020019091905050610563565b005b341561022657600080fd5b61026a600480803573ffffffffffffffffffffffffffffffffffffffff1690602001909190803560ff1690602001909190803560ff169060200190919050506107c8565b005b341561027757600080fd5b61027f610c69565b604051808273ffffffffffffffffffffffffffffffffffffffff1673ffffffffffffffffffffffffffffffffffffffff16815260200191505060405180910390f35b34156102cc57600080fd5b6102e26004808035906020019091905050610c93565b005b34156102ef57600080fd5b61031b600480803573ffffffffffffffffffffffffffffffffffffffff16906020019091905050610d72565b604051808215151515815260200191505060405180910390f35b60008054905090565b6000808273ffffffffffffffffffffffffffffffffffffffff166336b2e82a6040518163ffffffff167c0100000000000000000000000000000000000000000000000000000000028152600401602060405180830381600087803b15156103a457600080fd5b5af115156103b157600080fd5b5050506040518051905073ffffffffffffffffffffffffffffffffffffffff166337f1e7f28473ffffffffffffffffffffffffffffffffffffffff166362ebb01e6040518163ffffffff167c0100000000000000000000000000000000000000000000000000000000028152600401602060405180830381600087803b151561043957600080fd5b5af1151561044657600080fd5b5050506040518051905073ffffffffffffffffffffffffffffffffffffffff1663a0bfa1e06040518163ffffffff167c0100000000000000000000000000000000000000000000000000000000028152600401602060405180830381600087803b15156104b257600080fd5b5af115156104bf57600080fd5b505050604051805190506040518263ffffffff167c01000000000000000000000000000000000000000000000000000000000281526004018082600d81111561050457fe5b60ff168152602001915050602060405180830381600087803b151561052857600080fd5b5af1151561053557600080fd5b505050604051805190509050610bb8915050919050565b600030905090565b60008160005410159050919050565b6000806105e88573ffffffffffffffffffffffffffffffffffffffff1663ca04c8346040518163ffffffff167c0100000000000000000000000000000000000000000000000000000000028152600401602060405180830381600087803b15156105cc57600080fd5b5af115156105d957600080fd5b5050506040518051905061033e565b91506105fe600a83610e7090919063ffffffff16565b905061060984610d72565b1561062457816000541015151561061f57600080fd5b610638565b8082016000541015151561063757600080fd5b5b600160009054906101000a900473ffffffffffffffffffffffffffffffffffffffff1673ffffffffffffffffffffffffffffffffffffffff166323b872dd8673ffffffffffffffffffffffffffffffffffffffff166338cc48316040518163ffffffff167c0100000000000000000000000000000000000000000000000000000000028152600401602060405180830381600087803b15156106d957600080fd5b5af115156106e657600080fd5b5050506040518051905030856040518463ffffffff167c0100000000000000000000000000000000000000000000000000000000028152600401808473ffffffffffffffffffffffffffffffffffffffff1673ffffffffffffffffffffffffffffffffffffffff1681526020018373ffffffffffffffffffffffffffffffffffffffff1673ffffffffffffffffffffffffffffffffffffffff1681526020018281526020019350505050602060405180830381600087803b15156107a957600080fd5b5af115156107b657600080fd5b50505060405180519050505050505050565b60008060008573ffffffffffffffffffffffffffffffffffffffff166337f1e7f2866040518263ffffffff167c01000000000000000000000000000000000000000000000000000000000281526004018082600d81111561082557fe5b60ff168152602001915050602060405180830381600087803b151561084957600080fd5b5af1151561085657600080fd5b505050604051805190509250610876600a84610e7090919063ffffffff16565b9150610880610e86565b604051809103906000f080151561089657600080fd5b9050600054828401111515156108ab57600080fd5b600160009054906101000a900473ffffffffffffffffffffffffffffffffffffffff1673ffffffffffffffffffffffffffffffffffffffff166323b872dd8230856040518463ffffffff167c0100000000000000000000000000000000000000000000000000000000028152600401808473ffffffffffffffffffffffffffffffffffffffff1673ffffffffffffffffffffffffffffffffffffffff1681526020018373ffffffffffffffffffffffffffffffffffffffff1673ffffffffffffffffffffffffffffffffffffffff1681526020018281526020019350505050602060405180830381600087803b15156109a357600080fd5b5af115156109b057600080fd5b5050506040518051905050600160009054906101000a900473ffffffffffffffffffffffffffffffffffffffff1673ffffffffffffffffffffffffffffffffffffffff166323b872dd8773ffffffffffffffffffffffffffffffffffffffff166338cc48316040518163ffffffff167c0100000000000000000000000000000000000000000000000000000000028152600401602060405180830381600087803b1515610a5c57600080fd5b5af11515610a6957600080fd5b5050506040518051905030866040518463ffffffff167c0100000000000000000000000000000000000000000000000000000000028152600401808473ffffffffffffffffffffffffffffffffffffffff1673ffffffffffffffffffffffffffffffffffffffff1681526020018373ffffffffffffffffffffffffffffffffffffffff1673ffffffffffffffffffffffffffffffffffffffff1681526020018281526020019350505050602060405180830381600087803b1515610b2c57600080fd5b5af11515610b3957600080fd5b50505060405180519050508573ffffffffffffffffffffffffffffffffffffffff1663d67205578686846040518463ffffffff167c01000000000000000000000000000000000000000000000000000000000281526004018084600d811115610b9e57fe5b60ff168152602001836004811115610bb257fe5b60ff1681526020018273ffffffffffffffffffffffffffffffffffffffff1673ffffffffffffffffffffffffffffffffffffffff1681526020019350505050602060405180830381600087803b1515610c0a57600080fd5b5af11515610c1757600080fd5b50505060405180519050600260006101000a81548173ffffffffffffffffffffffffffffffffffffffff021916908373ffffffffffffffffffffffffffffffffffffffff160217905550505050505050565b6000600260009054906101000a900473ffffffffffffffffffffffffffffffffffffffff16905090565b600160009054906101000a900473ffffffffffffffffffffffffffffffffffffffff1673ffffffffffffffffffffffffffffffffffffffff166340c10f1930836040518363ffffffff167c0100000000000000000000000000000000000000000000000000000000028152600401808373ffffffffffffffffffffffffffffffffffffffff1673ffffffffffffffffffffffffffffffffffffffff16815260200182815260200192505050602060405180830381600087803b1515610d5757600080fd5b5af11515610d6457600080fd5b505050604051805190505050565b6000428273ffffffffffffffffffffffffffffffffffffffff1663267a8da06040518163ffffffff167c0100000000000000000000000000000000000000000000000000000000028152600401602060405180830381600087803b1515610dd857600080fd5b5af11515610de557600080fd5b5050506040518051905073ffffffffffffffffffffffffffffffffffffffff1663afc01cb96040518163ffffffff167c0100000000000000000000000000000000000000000000000000000000028152600401602060405180830381600087803b1515610e5157600080fd5b5af11515610e5e57600080fd5b50505060405180519050119050919050565b60008183811515610e7d57fe5b04905092915050565b6040516103d080610e978339019056006060604052635c2aad80600155341561001757600080fd5b6103aa806100266000396000f30060606040526004361061006d576000357c0100000000000000000000000000000000000000000000000000000000900463ffffffff168063267a8da014610072578063702e1382146100c7578063afc01cb914610100578063b5be12e814610129578063d7f862ec146101b7575b600080fd5b341561007d57600080fd5b610085610208565b604051808273ffffffffffffffffffffffffffffffffffffffff1673ffffffffffffffffffffffffffffffffffffffff16815260200191505060405180910390f35b34156100d257600080fd5b6100fe600480803573ffffffffffffffffffffffffffffffffffffffff16906020019091905050610210565b005b341561010b57600080fd5b610113610276565b6040518082815260200191505060405180910390f35b341561013457600080fd5b610160600480803573ffffffffffffffffffffffffffffffffffffffff16906020019091905050610280565b6040518080602001828103825283818151815260200191508051906020019060200280838360005b838110156101a3578082015181840152602081019050610188565b505050509050019250505060405180910390f35b34156101c257600080fd5b6101ee600480803573ffffffffffffffffffffffffffffffffffffffff1690602001909190505061030f565b604051808215151515815260200191505060405180910390f35b600030905090565b600080548060010182816102249190610319565b9160005260206000209001600083909190916101000a81548173ffffffffffffffffffffffffffffffffffffffff021916908373ffffffffffffffffffffffffffffffffffffffff1602179055505050565b6000600154905090565b610288610345565b6102918261030f565b1561030a578173ffffffffffffffffffffffffffffffffffffffff16637e0a83246040518163ffffffff167c0100000000000000000000000000000000000000000000000000000000028152600401600060405180830381600087803b15156102f957600080fd5b5af1151561030657600080fd5b5050505b919050565b6000809050919050565b8154818355818115116103405781836000526020600020918201910161033f9190610359565b5b505050565b602060405190810160405280600081525090565b61037b91905b8082111561037757600081600090555060010161035f565b5090565b905600a165627a7a72305820b02e292c9f4d5b16415211f61a79307a51461fe7e387328008907c813a77db130029a165627a7a72305820aa958b7222096da507fec436773ecb01cc8be31c811047f6ec5c4c97263f66a10029",
  "source": "pragma solidity ^0.4.0;\n\nimport \"./Car.sol\";\nimport \"./SmartCoin.sol\";\nimport \"./Fabric.sol\";\nimport \"./Insurance.sol\";\nimport \"zeppelin-solidity/contracts/math/SafeMath.sol\";\n\ncontract Participant {\n    using SafeMath for uint256;\n\n    uint private balance = coin.balanceOf(this);\n\n    SmartCoin private coin;\n\n    Car private car;\n\n    function checkBuyPossibility(uint price) public returns (bool){\n        return balance >= price;\n\n    }\n\n    function buyCar(Participant lastOwner, Car car, Insurance ins) public {\n        uint price = calculatePrice(lastOwner.getCar());\n\n        uint insPrice = price.div(10);\n\n        if (availableInsurance(car))\n            require(balance >= price);\n        else\n            require(balance >= price + insPrice);\n\n        coin.transferFrom(lastOwner.getAddress(), this, price);\n    }\n\n    function buyNewCar(Fabric fabric, Specifications.Model model, Specifications.Color color){\n        uint price = fabric.getPrice(model);\n\n        uint insPrice = price.div(10);\n\n        Insurance ins = new Insurance();\n\n        require(price + insPrice <= balance);\n\n        coin.transferFrom(ins, this, insPrice);\n\n        coin.transferFrom(fabric.getAddress(), this, price);\n\n        car = fabric.getCar(model, color, ins);\n    }\n\n    function availableInsurance(Car car) returns (bool){\n        return car.getInsurance().getFinishTime() > now;\n    }\n\n    function getBalance() returns (uint){\n        return balance;\n    }\n\n    function getCar() returns (Car){\n        return car;\n    }\n\n    function calculatePrice(Car car) returns (uint){\n        uint initialPrice = car.getEmissionFabric().getPrice(car.getSpecifications().getModel());\n        return 3000;\n    }\n\n    function getAddress() returns (address){\n        return this;\n    }\n\n    function fillUp(uint amount){\n        coin.mint(this, amount);\n    }\n}\n",
  "sourcePath": "/Users/ivanan/Documents/workspace/autoCoin/contracts/Participant.sol",
  "compiler": {
    "name": "solc",
    "version": "0.4.21+commit.dfe3193c.Emscripten.clang"
  },
  "schemaVersion": "2.0.0",
  "updatedAt": "2018-04-25T13:57:35.439Z"
}