{
  "contractName": "Specifications",
  "abi": [
    {
      "constant": true,
      "inputs": [],
      "name": "crashes",
      "outputs": [
        {
          "name": "",
          "type": "uint256"
        }
      ],
      "payable": false,
      "stateMutability": "view",
      "type": "function"
    },
    {
      "constant": true,
      "inputs": [],
      "name": "mileage",
      "outputs": [
        {
          "name": "",
          "type": "uint256"
        }
      ],
      "payable": false,
      "stateMutability": "view",
      "type": "function"
    },
    {
      "constant": true,
      "inputs": [],
      "name": "pigeonholesStatus",
      "outputs": [
        {
          "name": "",
          "type": "uint256"
        }
      ],
      "payable": false,
      "stateMutability": "view",
      "type": "function"
    },
    {
      "constant": true,
      "inputs": [],
      "name": "carcassStatus",
      "outputs": [
        {
          "name": "",
          "type": "uint256"
        }
      ],
      "payable": false,
      "stateMutability": "view",
      "type": "function"
    },
    {
      "constant": true,
      "inputs": [],
      "name": "checkUp",
      "outputs": [
        {
          "name": "",
          "type": "uint256"
        }
      ],
      "payable": false,
      "stateMutability": "view",
      "type": "function"
    },
    {
      "inputs": [
        {
          "name": "c",
          "type": "uint8"
        },
        {
          "name": "m",
          "type": "uint8"
        },
        {
          "name": "ch",
          "type": "uint256[]"
        }
      ],
      "payable": false,
      "stateMutability": "nonpayable",
      "type": "constructor"
    },
    {
      "constant": false,
      "inputs": [],
      "name": "getColor",
      "outputs": [
        {
          "name": "",
          "type": "uint8"
        }
      ],
      "payable": false,
      "stateMutability": "nonpayable",
      "type": "function"
    },
    {
      "constant": false,
      "inputs": [],
      "name": "getModel",
      "outputs": [
        {
          "name": "",
          "type": "uint8"
        }
      ],
      "payable": false,
      "stateMutability": "nonpayable",
      "type": "function"
    }
  ],
  "bytecode": "0x606060405260008081548110151561001357fe5b9060005260206000209001546001556000600181548110151561003257fe5b9060005260206000209001546002556000600281548110151561005157fe5b9060005260206000209001546003556000600381548110151561007057fe5b9060005260206000209001546004556000600481548110151561008f57fe5b90600052602060002090015460055534156100a957600080fd5b6040516103f83803806103f88339810160405280805190602001909190805190602001909190805182019190505082600660006101000a81548160ff021916908360048111156100f557fe5b021790555081600660016101000a81548160ff0219169083600d81111561011857fe5b0217905550806000908051906020019061013392919061013c565b505050506101ae565b828054828255906000526020600020908101928215610178579160200282015b8281111561017757825182559160200191906001019061015c565b5b5090506101859190610189565b5090565b6101ab91905b808211156101a757600081600090555060010161018f565b5090565b90565b61023b806101bd6000396000f300606060405260043610610083576000357c0100000000000000000000000000000000000000000000000000000000900463ffffffff1680630c4bf1c01461008857806315585289146100b157806343f9778a146100da5780634cdd745e1461010357806355ab21021461012c5780639a86139b14610155578063a0bfa1e01461018c575b600080fd5b341561009357600080fd5b61009b6101c3565b6040518082815260200191505060405180910390f35b34156100bc57600080fd5b6100c46101c9565b6040518082815260200191505060405180910390f35b34156100e557600080fd5b6100ed6101cf565b6040518082815260200191505060405180910390f35b341561010e57600080fd5b6101166101d5565b6040518082815260200191505060405180910390f35b341561013757600080fd5b61013f6101db565b6040518082815260200191505060405180910390f35b341561016057600080fd5b6101686101e1565b6040518082600481111561017857fe5b60ff16815260200191505060405180910390f35b341561019757600080fd5b61019f6101f8565b6040518082600d8111156101af57fe5b60ff16815260200191505060405180910390f35b60045481565b60015481565b60025481565b60035481565b60055481565b6000600660009054906101000a900460ff16905090565b6000600660019054906101000a900460ff169050905600a165627a7a72305820cf63d0d298de1529afcd82a7f36356cbf304f525de52440b3befa4f41e56c7f70029",
  "source": "pragma solidity ^0.4.0;\n\ncontract Specifications {\n    uint[] characteristics;\n\n    uint public mileage = characteristics[0];\n\n    uint public pigeonholesStatus = characteristics[1];\n\n    uint public carcassStatus = characteristics[2];\n\n    uint public crashes = characteristics[3];\n\n    uint public checkUp = characteristics[4];\n\n    enum Color {RED, BLUE, YELLOW, WHITE, BLACK}\n\n    enum Model {WV, SKODA, MERCEDES, PEUGEOT, FIAT, FORD, TOYOTA, NISSAN, RENAULT,\n        CHEVROLET, HYUNDAY, VAZ, UAZ, GAZ}\n\n    Color color;\n\n    Model model;\n\n    function Specifications(Color c, Model m, uint[] ch) public {\n        color = c;\n\n        model = m;\n\n        characteristics = ch;\n    }\n\n    function getColor() returns (Color){\n        return color;\n    }\n\n    function getModel() returns (Model){\n        return model;\n    }\n}\n",
  "sourcePath": "/Users/ivanan/Documents/workspace/autoCoin/contracts/Specifications.sol",
  "compiler": {
    "name": "solc",
    "version": "0.4.21+commit.dfe3193c.Emscripten.clang"
  },
  "schemaVersion": "2.0.0",
  "updatedAt": "2018-04-25T13:57:35.437Z"
}