{
  "contractName": "Specifications",
  "abi": [
    {
      "constant": true,
      "inputs": [],
      "name": "mileage",
      "outputs": [
        {
          "name": "",
          "type": "uint256"
        }
      ],
      "payable": false,
      "stateMutability": "view",
      "type": "function"
    },
    {
      "constant": true,
      "inputs": [],
      "name": "torque",
      "outputs": [
        {
          "name": "",
          "type": "uint256"
        }
      ],
      "payable": false,
      "stateMutability": "view",
      "type": "function"
    },
    {
      "constant": true,
      "inputs": [],
      "name": "hp",
      "outputs": [
        {
          "name": "",
          "type": "uint256"
        }
      ],
      "payable": false,
      "stateMutability": "view",
      "type": "function"
    },
    {
      "inputs": [
        {
          "name": "c",
          "type": "uint8"
        },
        {
          "name": "m",
          "type": "uint8"
        },
        {
          "name": "ch",
          "type": "uint256[]"
        }
      ],
      "payable": false,
      "stateMutability": "nonpayable",
      "type": "constructor"
    },
    {
      "constant": false,
      "inputs": [],
      "name": "getColor",
      "outputs": [
        {
          "name": "",
          "type": "uint8"
        }
      ],
      "payable": false,
      "stateMutability": "nonpayable",
      "type": "function"
    },
    {
      "constant": false,
      "inputs": [],
      "name": "getModel",
      "outputs": [
        {
          "name": "",
          "type": "uint8"
        }
      ],
      "payable": false,
      "stateMutability": "nonpayable",
      "type": "function"
    }
  ],
  "bytecode": "0x60606040526004600081548110151561001457fe5b9060005260206000209001546000556004600181548110151561003357fe5b9060005260206000209001546001556004600281548110151561005257fe5b906000526020600020900154600255341561006c57600080fd5b6040516103473803806103478339810160405280805190602001909190805190602001909190805182019190505082600360006101000a81548160ff021916908360048111156100b857fe5b021790555081600360016101000a81548160ff0219169083600d8111156100db57fe5b021790555080600490805190602001906100f69291906100ff565b50505050610171565b82805482825590600052602060002090810192821561013b579160200282015b8281111561013a57825182559160200191906001019061011f565b5b509050610148919061014c565b5090565b61016e91905b8082111561016a576000816000905550600101610152565b5090565b90565b6101c7806101806000396000f30060606040526004361061006d576000357c0100000000000000000000000000000000000000000000000000000000900463ffffffff16806315585289146100725780639a86139b1461009b578063a0bfa1e0146100d2578063a29b6c1214610109578063d8124c5f14610132575b600080fd5b341561007d57600080fd5b61008561015b565b6040518082815260200191505060405180910390f35b34156100a657600080fd5b6100ae610161565b604051808260048111156100be57fe5b60ff16815260200191505060405180910390f35b34156100dd57600080fd5b6100e5610178565b6040518082600d8111156100f557fe5b60ff16815260200191505060405180910390f35b341561011457600080fd5b61011c61018f565b6040518082815260200191505060405180910390f35b341561013d57600080fd5b610145610195565b6040518082815260200191505060405180910390f35b60005481565b6000600360009054906101000a900460ff16905090565b6000600360019054906101000a900460ff16905090565b60025481565b600154815600a165627a7a7230582070e4ed0b90487f0d213e748cc8e1cd7fbc6f3c8c9b8ec5b0e2746504901cd2ba0029",
  "source": "pragma solidity ^0.4.0;\n\ncontract Specifications {\n    uint public mileage = characteristics[0];\n\n    uint public hp = characteristics[1];\n\n    uint public torque = characteristics[2];\n\n    enum Color {RED, BLUE, YELLOW, WHITE, BLACK}\n\n    enum Model {WV, SKODA, MERCEDES, PEUGEOT, FIAT, FORD, TOYOTA, NISSAN, RENAULT,\n        CHEVROLET, HYUNDAY, VAZ, UAZ, GAZ}\n\n    Color color;\n\n    Model model;\n\n    uint[] characteristics;\n\n    function Specifications(Color c, Model m, uint[] ch) public {\n        color = c;\n\n        model = m;\n\n        characteristics = ch;\n    }\n\n    function getColor() returns (Color){\n        return color;\n    }\n\n    function getModel() returns (Model){\n        return model;\n    }\n}\n",
  "sourcePath": "/Users/ivanan/Documents/workspace/AutoCoin/contracts/Specifications.sol",
  "compiler": {
    "name": "solc",
    "version": "0.4.21+commit.dfe3193c.Emscripten.clang"
  },
  "schemaVersion": "2.0.0",
  "updatedAt": "2018-04-22T15:48:36.008Z"
}